{
  "_format": "hh-sol-artifact-1",
  "contractName": "Erc1155Token",
  "sourceName": "contracts/Erc1155Token.sol",
  "abi": [
    {
      "inputs": [],
      "stateMutability": "nonpayable",
      "type": "constructor"
    },
    {
      "anonymous": false,
      "inputs": [
        {
          "indexed": true,
          "internalType": "address",
          "name": "account",
          "type": "address"
        },
        {
          "indexed": true,
          "internalType": "address",
          "name": "operator",
          "type": "address"
        },
        {
          "indexed": false,
          "internalType": "bool",
          "name": "approved",
          "type": "bool"
        }
      ],
      "name": "ApprovalForAll",
      "type": "event"
    },
    {
      "anonymous": false,
      "inputs": [
        {
          "indexed": true,
          "internalType": "address",
          "name": "previousOwner",
          "type": "address"
        },
        {
          "indexed": true,
          "internalType": "address",
          "name": "newOwner",
          "type": "address"
        }
      ],
      "name": "OwnershipTransferred",
      "type": "event"
    },
    {
      "anonymous": false,
      "inputs": [
        {
          "indexed": true,
          "internalType": "address",
          "name": "operator",
          "type": "address"
        },
        {
          "indexed": true,
          "internalType": "address",
          "name": "from",
          "type": "address"
        },
        {
          "indexed": true,
          "internalType": "address",
          "name": "to",
          "type": "address"
        },
        {
          "indexed": false,
          "internalType": "uint256[]",
          "name": "ids",
          "type": "uint256[]"
        },
        {
          "indexed": false,
          "internalType": "uint256[]",
          "name": "values",
          "type": "uint256[]"
        }
      ],
      "name": "TransferBatch",
      "type": "event"
    },
    {
      "anonymous": false,
      "inputs": [
        {
          "indexed": true,
          "internalType": "address",
          "name": "operator",
          "type": "address"
        },
        {
          "indexed": true,
          "internalType": "address",
          "name": "from",
          "type": "address"
        },
        {
          "indexed": true,
          "internalType": "address",
          "name": "to",
          "type": "address"
        },
        {
          "indexed": false,
          "internalType": "uint256",
          "name": "id",
          "type": "uint256"
        },
        {
          "indexed": false,
          "internalType": "uint256",
          "name": "value",
          "type": "uint256"
        }
      ],
      "name": "TransferSingle",
      "type": "event"
    },
    {
      "anonymous": false,
      "inputs": [
        {
          "indexed": false,
          "internalType": "string",
          "name": "value",
          "type": "string"
        },
        {
          "indexed": true,
          "internalType": "uint256",
          "name": "id",
          "type": "uint256"
        }
      ],
      "name": "URI",
      "type": "event"
    },
    {
      "inputs": [],
      "name": "MILES_ID",
      "outputs": [
        {
          "internalType": "uint256",
          "name": "",
          "type": "uint256"
        }
      ],
      "stateMutability": "view",
      "type": "function"
    },
    {
      "inputs": [
        {
          "internalType": "address",
          "name": "",
          "type": "address"
        }
      ],
      "name": "authorizedAccounts",
      "outputs": [
        {
          "internalType": "bool",
          "name": "",
          "type": "bool"
        }
      ],
      "stateMutability": "view",
      "type": "function"
    },
    {
      "inputs": [
        {
          "internalType": "address",
          "name": "account",
          "type": "address"
        },
        {
          "internalType": "uint256",
          "name": "id",
          "type": "uint256"
        }
      ],
      "name": "balanceOf",
      "outputs": [
        {
          "internalType": "uint256",
          "name": "",
          "type": "uint256"
        }
      ],
      "stateMutability": "view",
      "type": "function"
    },
    {
      "inputs": [
        {
          "internalType": "address[]",
          "name": "accounts",
          "type": "address[]"
        },
        {
          "internalType": "uint256[]",
          "name": "ids",
          "type": "uint256[]"
        }
      ],
      "name": "balanceOfBatch",
      "outputs": [
        {
          "internalType": "uint256[]",
          "name": "",
          "type": "uint256[]"
        }
      ],
      "stateMutability": "view",
      "type": "function"
    },
    {
      "inputs": [
        {
          "internalType": "address",
          "name": "account",
          "type": "address"
        }
      ],
      "name": "disableAccount",
      "outputs": [],
      "stateMutability": "nonpayable",
      "type": "function"
    },
    {
      "inputs": [
        {
          "internalType": "address",
          "name": "account",
          "type": "address"
        }
      ],
      "name": "enableAccount",
      "outputs": [],
      "stateMutability": "nonpayable",
      "type": "function"
    },
    {
      "inputs": [
        {
          "internalType": "address",
          "name": "account",
          "type": "address"
        },
        {
          "internalType": "address",
          "name": "operator",
          "type": "address"
        }
      ],
      "name": "isApprovedForAll",
      "outputs": [
        {
          "internalType": "bool",
          "name": "",
          "type": "bool"
        }
      ],
      "stateMutability": "view",
      "type": "function"
    },
    {
      "inputs": [
        {
          "internalType": "address",
          "name": "to",
          "type": "address"
        },
        {
          "internalType": "uint256",
          "name": "amount",
          "type": "uint256"
        }
      ],
      "name": "mint",
      "outputs": [],
      "stateMutability": "nonpayable",
      "type": "function"
    },
    {
      "inputs": [],
      "name": "owner",
      "outputs": [
        {
          "internalType": "address",
          "name": "",
          "type": "address"
        }
      ],
      "stateMutability": "view",
      "type": "function"
    },
    {
      "inputs": [],
      "name": "renounceOwnership",
      "outputs": [],
      "stateMutability": "nonpayable",
      "type": "function"
    },
    {
      "inputs": [
        {
          "internalType": "address",
          "name": "from",
          "type": "address"
        },
        {
          "internalType": "address",
          "name": "to",
          "type": "address"
        },
        {
          "internalType": "uint256[]",
          "name": "ids",
          "type": "uint256[]"
        },
        {
          "internalType": "uint256[]",
          "name": "amounts",
          "type": "uint256[]"
        },
        {
          "internalType": "bytes",
          "name": "data",
          "type": "bytes"
        }
      ],
      "name": "safeBatchTransferFrom",
      "outputs": [],
      "stateMutability": "nonpayable",
      "type": "function"
    },
    {
      "inputs": [
        {
          "internalType": "address",
          "name": "from",
          "type": "address"
        },
        {
          "internalType": "address",
          "name": "to",
          "type": "address"
        },
        {
          "internalType": "uint256",
          "name": "id",
          "type": "uint256"
        },
        {
          "internalType": "uint256",
          "name": "amount",
          "type": "uint256"
        },
        {
          "internalType": "bytes",
          "name": "data",
          "type": "bytes"
        }
      ],
      "name": "safeTransferFrom",
      "outputs": [],
      "stateMutability": "nonpayable",
      "type": "function"
    },
    {
      "inputs": [
        {
          "internalType": "address",
          "name": "operator",
          "type": "address"
        },
        {
          "internalType": "bool",
          "name": "approved",
          "type": "bool"
        }
      ],
      "name": "setApprovalForAll",
      "outputs": [],
      "stateMutability": "nonpayable",
      "type": "function"
    },
    {
      "inputs": [
        {
          "internalType": "bytes4",
          "name": "interfaceId",
          "type": "bytes4"
        }
      ],
      "name": "supportsInterface",
      "outputs": [
        {
          "internalType": "bool",
          "name": "",
          "type": "bool"
        }
      ],
      "stateMutability": "view",
      "type": "function"
    },
    {
      "inputs": [
        {
          "internalType": "address",
          "name": "newOwner",
          "type": "address"
        }
      ],
      "name": "transferOwnership",
      "outputs": [],
      "stateMutability": "nonpayable",
      "type": "function"
    },
    {
      "inputs": [
        {
          "internalType": "uint256",
          "name": "",
          "type": "uint256"
        }
      ],
      "name": "uri",
      "outputs": [
        {
          "internalType": "string",
          "name": "",
          "type": "string"
        }
      ],
      "stateMutability": "view",
      "type": "function"
    },
    {
      "inputs": [
        {
          "internalType": "address",
          "name": "account",
          "type": "address"
        }
      ],
      "name": "verifyAccount",
      "outputs": [
        {
          "internalType": "bool",
          "name": "",
          "type": "bool"
        }
      ],
      "stateMutability": "view",
      "type": "function"
    }
  ],
  "bytecode": "0x60806040523480156200001157600080fd5b506040805160208101909152600081526200002c816200003e565b50620000383362000050565b62000215565b60026200004c828262000149565b5050565b600380546001600160a01b038381166001600160a01b0319831681179093556040519116919082907f8be0079c531659141344cd1fd0a4f28419497f9722a3daafe3b4186f6b6457e090600090a35050565b634e487b7160e01b600052604160045260246000fd5b600181811c90821680620000cd57607f821691505b602082108103620000ee57634e487b7160e01b600052602260045260246000fd5b50919050565b601f82111562000144576000816000526020600020601f850160051c810160208610156200011f5750805b601f850160051c820191505b8181101562000140578281556001016200012b565b5050505b505050565b81516001600160401b03811115620001655762000165620000a2565b6200017d81620001768454620000b8565b84620000f4565b602080601f831160018114620001b557600084156200019c5750858301515b600019600386901b1c1916600185901b17855562000140565b600085815260208120601f198616915b82811015620001e657888601518255948401946001909101908401620001c5565b5085821015620002055787850151600019600388901b60f8161c191681555b5050505050600190811b01905550565b6117d980620002256000396000f3fe608060405234801561001057600080fd5b506004361061010a5760003560e01c8063715018a6116100a2578063a22cb46511610071578063a22cb46514610234578063e985e9c514610247578063f16dfbe914610283578063f242432a146102af578063f2fde38b146102c257600080fd5b8063715018a6146101eb57806384b61581146101f35780638c79ba3a146102065780638da5cb5b1461021957600080fd5b80632eb2c2d6116100de5780632eb2c2d61461019b5780633d9cb06c146101b057806340c10f19146101b85780634e1273f4146101cb57600080fd5b8062fdd58e1461010f57806301ffc9a7146101355780630e89341c1461015857806324ba588414610178575b600080fd5b61012261011d366004610f9f565b6102d5565b6040519081526020015b60405180910390f35b610148610143366004610fdf565b61036e565b604051901515815260200161012c565b61016b610166366004611003565b6103be565b60405161012c9190611062565b610148610186366004611075565b60046020526000908152604090205460ff1681565b6101ae6101a93660046111e1565b610452565b005b610122600081565b6101ae6101c6366004610f9f565b61049e565b6101de6101d936600461128b565b61052e565b60405161012c9190611392565b6101ae610650565b6101ae610201366004611075565b610664565b6101ae610214366004611075565b610690565b6003546040516001600160a01b03909116815260200161012c565b6101ae6102423660046113a5565b6106b9565b6101486102553660046113e1565b6001600160a01b03918216600090815260016020908152604080832093909416825291909152205460ff1690565b610148610291366004611075565b6001600160a01b031660009081526004602052604090205460ff1690565b6101ae6102bd366004611414565b6106c4565b6101ae6102d0366004611075565b610709565b60006001600160a01b0383166103455760405162461bcd60e51b815260206004820152602a60248201527f455243313135353a2061646472657373207a65726f206973206e6f742061207660448201526930b634b21037bbb732b960b11b60648201526084015b60405180910390fd5b506000818152602081815260408083206001600160a01b03861684529091529020545b92915050565b60006001600160e01b03198216636cdb3d1360e11b148061039f57506001600160e01b031982166303a24d0760e21b145b8061036857506301ffc9a760e01b6001600160e01b0319831614610368565b6060600280546103cd90611479565b80601f01602080910402602001604051908101604052809291908181526020018280546103f990611479565b80156104465780601f1061041b57610100808354040283529160200191610446565b820191906000526020600020905b81548152906001019060200180831161042957829003601f168201915b50505050509050919050565b6001600160a01b03851633148061046e575061046e8533610255565b61048a5760405162461bcd60e51b815260040161033c906114b3565b6104978585858585610782565b5050505050565b6104a6610958565b6001600160a01b03821660009081526004602052604090205460ff1661050e5760405162461bcd60e51b815260206004820152601960248201527f4e6f7420616e20617574686f72697a6564206163636f756e7400000000000000604482015260640161033c565b61052a82600083604051806020016040528060008152506109b2565b5050565b606081518351146105935760405162461bcd60e51b815260206004820152602960248201527f455243313135353a206163636f756e747320616e6420696473206c656e677468604482015268040dad2e6dac2e8c6d60bb1b606482015260840161033c565b6000835167ffffffffffffffff8111156105af576105af611090565b6040519080825280602002602001820160405280156105d8578160200160208202803683370190505b50905060005b8451811015610648576106238582815181106105fc576105fc611501565b602002602001015185838151811061061657610616611501565b60200260200101516102d5565b82828151811061063557610635611501565b60209081029190910101526001016105de565b509392505050565b610658610958565b6106626000610ac6565b565b61066c610958565b6001600160a01b03166000908152600460205260409020805460ff19166001179055565b610698610958565b6001600160a01b03166000908152600460205260409020805460ff19169055565b61052a338383610b18565b6001600160a01b0385163314806106e057506106e08533610255565b6106fc5760405162461bcd60e51b815260040161033c906114b3565b6104978585858585610bf8565b610711610958565b6001600160a01b0381166107765760405162461bcd60e51b815260206004820152602660248201527f4f776e61626c653a206e6577206f776e657220697320746865207a65726f206160448201526564647265737360d01b606482015260840161033c565b61077f81610ac6565b50565b81518351146107e45760405162461bcd60e51b815260206004820152602860248201527f455243313135353a2069647320616e6420616d6f756e7473206c656e677468206044820152670dad2e6dac2e8c6d60c31b606482015260840161033c565b6001600160a01b03841661080a5760405162461bcd60e51b815260040161033c90611517565b3360005b84518110156108ea57600085828151811061082b5761082b611501565b60200260200101519050600085838151811061084957610849611501565b602090810291909101810151600084815280835260408082206001600160a01b038e1683529093529190912054909150818110156108995760405162461bcd60e51b815260040161033c9061155c565b6000838152602081815260408083206001600160a01b038e8116855292528083208585039055908b168252812080548492906108d69084906115a6565b90915550506001909301925061080e915050565b50846001600160a01b0316866001600160a01b0316826001600160a01b03167f4a39dc06d4c0dbc64b70af90fd698a233a518aa5d07e595d983b8c0526c8f7fb878760405161093a9291906115c7565b60405180910390a4610950818787878787610d22565b505050505050565b6003546001600160a01b031633146106625760405162461bcd60e51b815260206004820181905260248201527f4f776e61626c653a2063616c6c6572206973206e6f7420746865206f776e6572604482015260640161033c565b6001600160a01b038416610a125760405162461bcd60e51b815260206004820152602160248201527f455243313135353a206d696e7420746f20746865207a65726f206164647265736044820152607360f81b606482015260840161033c565b336000610a1e85610e7d565b90506000610a2b85610e7d565b90506000868152602081815260408083206001600160a01b038b16845290915281208054879290610a5d9084906115a6565b909155505060408051878152602081018790526001600160a01b03808a1692600092918716917fc3d58168c5ae7397731d063d5bbf3d657854427343f4c083240f7aacaa2d0f62910160405180910390a4610abd83600089898989610ec8565b50505050505050565b600380546001600160a01b038381166001600160a01b0319831681179093556040519116919082907f8be0079c531659141344cd1fd0a4f28419497f9722a3daafe3b4186f6b6457e090600090a35050565b816001600160a01b0316836001600160a01b031603610b8b5760405162461bcd60e51b815260206004820152602960248201527f455243313135353a2073657474696e6720617070726f76616c20737461747573604482015268103337b91039b2b63360b91b606482015260840161033c565b6001600160a01b03838116600081815260016020908152604080832094871680845294825291829020805460ff191686151590811790915591519182527f17307eab39ab6107e8899845ad3d59bd9653f200f220920489ca2b5937696c31910160405180910390a3505050565b6001600160a01b038416610c1e5760405162461bcd60e51b815260040161033c90611517565b336000610c2a85610e7d565b90506000610c3785610e7d565b90506000868152602081815260408083206001600160a01b038c16845290915290205485811015610c7a5760405162461bcd60e51b815260040161033c9061155c565b6000878152602081815260408083206001600160a01b038d8116855292528083208985039055908a16825281208054889290610cb79084906115a6565b909155505060408051888152602081018890526001600160a01b03808b16928c821692918816917fc3d58168c5ae7397731d063d5bbf3d657854427343f4c083240f7aacaa2d0f62910160405180910390a4610d17848a8a8a8a8a610ec8565b505050505050505050565b6001600160a01b0384163b156109505760405163bc197c8160e01b81526001600160a01b0385169063bc197c8190610d6690899089908890889088906004016115f5565b6020604051808303816000875af1925050508015610da1575060408051601f3d908101601f19168201909252610d9e91810190611653565b60015b610e4d57610dad611670565b806308c379a003610de65750610dc161168c565b80610dcc5750610de8565b8060405162461bcd60e51b815260040161033c9190611062565b505b60405162461bcd60e51b815260206004820152603460248201527f455243313135353a207472616e7366657220746f206e6f6e2d455243313135356044820152732932b1b2b4bb32b91034b6b83632b6b2b73a32b960611b606482015260840161033c565b6001600160e01b0319811663bc197c8160e01b14610abd5760405162461bcd60e51b815260040161033c90611716565b60408051600180825281830190925260609160009190602080830190803683370190505090508281600081518110610eb757610eb7611501565b602090810291909101015292915050565b6001600160a01b0384163b156109505760405163f23a6e6160e01b81526001600160a01b0385169063f23a6e6190610f0c908990899088908890889060040161175e565b6020604051808303816000875af1925050508015610f47575060408051601f3d908101601f19168201909252610f4491810190611653565b60015b610f5357610dad611670565b6001600160e01b0319811663f23a6e6160e01b14610abd5760405162461bcd60e51b815260040161033c90611716565b80356001600160a01b0381168114610f9a57600080fd5b919050565b60008060408385031215610fb257600080fd5b610fbb83610f83565b946020939093013593505050565b6001600160e01b03198116811461077f57600080fd5b600060208284031215610ff157600080fd5b8135610ffc81610fc9565b9392505050565b60006020828403121561101557600080fd5b5035919050565b6000815180845260005b8181101561104257602081850181015186830182015201611026565b506000602082860101526020601f19601f83011685010191505092915050565b602081526000610ffc602083018461101c565b60006020828403121561108757600080fd5b610ffc82610f83565b634e487b7160e01b600052604160045260246000fd5b601f8201601f1916810167ffffffffffffffff811182821017156110cc576110cc611090565b6040525050565b600067ffffffffffffffff8211156110ed576110ed611090565b5060051b60200190565b600082601f83011261110857600080fd5b81356020611115826110d3565b60405161112282826110a6565b80915083815260208101915060208460051b87010193508684111561114657600080fd5b602086015b84811015611162578035835291830191830161114b565b509695505050505050565b600082601f83011261117e57600080fd5b813567ffffffffffffffff81111561119857611198611090565b6040516111af601f8301601f1916602001826110a6565b8181528460208386010111156111c457600080fd5b816020850160208301376000918101602001919091529392505050565b600080600080600060a086880312156111f957600080fd5b61120286610f83565b945061121060208701610f83565b9350604086013567ffffffffffffffff8082111561122d57600080fd5b61123989838a016110f7565b9450606088013591508082111561124f57600080fd5b61125b89838a016110f7565b9350608088013591508082111561127157600080fd5b5061127e8882890161116d565b9150509295509295909350565b6000806040838503121561129e57600080fd5b823567ffffffffffffffff808211156112b657600080fd5b818501915085601f8301126112ca57600080fd5b813560206112d7826110d3565b6040516112e482826110a6565b83815260059390931b850182019282810191508984111561130457600080fd5b948201945b838610156113295761131a86610f83565b82529482019490820190611309565b9650508601359250508082111561133f57600080fd5b5061134c858286016110f7565b9150509250929050565b60008151808452602080850194506020840160005b838110156113875781518752958201959082019060010161136b565b509495945050505050565b602081526000610ffc6020830184611356565b600080604083850312156113b857600080fd5b6113c183610f83565b9150602083013580151581146113d657600080fd5b809150509250929050565b600080604083850312156113f457600080fd5b6113fd83610f83565b915061140b60208401610f83565b90509250929050565b600080600080600060a0868803121561142c57600080fd5b61143586610f83565b945061144360208701610f83565b93506040860135925060608601359150608086013567ffffffffffffffff81111561146d57600080fd5b61127e8882890161116d565b600181811c9082168061148d57607f821691505b6020821081036114ad57634e487b7160e01b600052602260045260246000fd5b50919050565b6020808252602e908201527f455243313135353a2063616c6c6572206973206e6f7420746f6b656e206f776e60408201526d195c881bdc88185c1c1c9bdd995960921b606082015260800190565b634e487b7160e01b600052603260045260246000fd5b60208082526025908201527f455243313135353a207472616e7366657220746f20746865207a65726f206164604082015264647265737360d81b606082015260800190565b6020808252602a908201527f455243313135353a20696e73756666696369656e742062616c616e636520666f60408201526939103a3930b739b332b960b11b606082015260800190565b8082018082111561036857634e487b7160e01b600052601160045260246000fd5b6040815260006115da6040830185611356565b82810360208401526115ec8185611356565b95945050505050565b6001600160a01b0386811682528516602082015260a06040820181905260009061162190830186611356565b82810360608401526116338186611356565b90508281036080840152611647818561101c565b98975050505050505050565b60006020828403121561166557600080fd5b8151610ffc81610fc9565b600060033d11156116895760046000803e5060005160e01c5b90565b600060443d101561169a5790565b6040516003193d81016004833e81513d67ffffffffffffffff81602484011181841117156116ca57505050505090565b82850191508151818111156116e25750505050505090565b843d87010160208285010111156116fc5750505050505090565b61170b602082860101876110a6565b509095945050505050565b60208082526028908201527f455243313135353a204552433131353552656365697665722072656a656374656040820152676420746f6b656e7360c01b606082015260800190565b6001600160a01b03868116825285166020820152604081018490526060810183905260a0608082018190526000906117989083018461101c565b97965050505050505056fea2646970667358221220ff6d753149ac20413ceb59c1aa995c06388a6857d106704d2aa29474b0bf5b1064736f6c63430008180033",
  "linkReferences": {},
  "deployedLinkReferences": {}
}