{
  "_format": "hh-sol-artifact-1",
  "contractName": "CashToken",
  "sourceName": "contracts/CashToken.sol",
  "abi": [
    {
      "inputs": [
        {
          "internalType": "uint256",
          "name": "reward",
          "type": "uint256"
        }
      ],
      "stateMutability": "nonpayable",
      "type": "constructor"
    },
    {
      "anonymous": false,
      "inputs": [
        {
          "indexed": true,
          "internalType": "address",
          "name": "owner",
          "type": "address"
        },
        {
          "indexed": true,
          "internalType": "address",
          "name": "spender",
          "type": "address"
        },
        {
          "indexed": false,
          "internalType": "uint256",
          "name": "value",
          "type": "uint256"
        }
      ],
      "name": "Approval",
      "type": "event"
    },
    {
      "anonymous": false,
      "inputs": [
        {
          "indexed": true,
          "internalType": "address",
          "name": "previousOwner",
          "type": "address"
        },
        {
          "indexed": true,
          "internalType": "address",
          "name": "newOwner",
          "type": "address"
        }
      ],
      "name": "OwnershipTransferred",
      "type": "event"
    },
    {
      "anonymous": false,
      "inputs": [
        {
          "indexed": true,
          "internalType": "address",
          "name": "from",
          "type": "address"
        },
        {
          "indexed": true,
          "internalType": "address",
          "name": "to",
          "type": "address"
        },
        {
          "indexed": false,
          "internalType": "uint256",
          "name": "value",
          "type": "uint256"
        }
      ],
      "name": "Transfer",
      "type": "event"
    },
    {
      "inputs": [
        {
          "internalType": "address",
          "name": "owner",
          "type": "address"
        },
        {
          "internalType": "address",
          "name": "spender",
          "type": "address"
        }
      ],
      "name": "allowance",
      "outputs": [
        {
          "internalType": "uint256",
          "name": "",
          "type": "uint256"
        }
      ],
      "stateMutability": "view",
      "type": "function"
    },
    {
      "inputs": [
        {
          "internalType": "address",
          "name": "spender",
          "type": "address"
        },
        {
          "internalType": "uint256",
          "name": "amount",
          "type": "uint256"
        }
      ],
      "name": "approve",
      "outputs": [
        {
          "internalType": "bool",
          "name": "",
          "type": "bool"
        }
      ],
      "stateMutability": "nonpayable",
      "type": "function"
    },
    {
      "inputs": [
        {
          "internalType": "address",
          "name": "",
          "type": "address"
        }
      ],
      "name": "authorizedAccounts",
      "outputs": [
        {
          "internalType": "bool",
          "name": "",
          "type": "bool"
        }
      ],
      "stateMutability": "view",
      "type": "function"
    },
    {
      "inputs": [
        {
          "internalType": "address",
          "name": "account",
          "type": "address"
        }
      ],
      "name": "balanceOf",
      "outputs": [
        {
          "internalType": "uint256",
          "name": "",
          "type": "uint256"
        }
      ],
      "stateMutability": "view",
      "type": "function"
    },
    {
      "inputs": [],
      "name": "blockReward",
      "outputs": [
        {
          "internalType": "uint256",
          "name": "",
          "type": "uint256"
        }
      ],
      "stateMutability": "view",
      "type": "function"
    },
    {
      "inputs": [],
      "name": "decimals",
      "outputs": [
        {
          "internalType": "uint8",
          "name": "",
          "type": "uint8"
        }
      ],
      "stateMutability": "view",
      "type": "function"
    },
    {
      "inputs": [
        {
          "internalType": "address",
          "name": "spender",
          "type": "address"
        },
        {
          "internalType": "uint256",
          "name": "subtractedValue",
          "type": "uint256"
        }
      ],
      "name": "decreaseAllowance",
      "outputs": [
        {
          "internalType": "bool",
          "name": "",
          "type": "bool"
        }
      ],
      "stateMutability": "nonpayable",
      "type": "function"
    },
    {
      "inputs": [
        {
          "internalType": "address",
          "name": "account",
          "type": "address"
        }
      ],
      "name": "disableAccount",
      "outputs": [],
      "stateMutability": "nonpayable",
      "type": "function"
    },
    {
      "inputs": [
        {
          "internalType": "address",
          "name": "account",
          "type": "address"
        }
      ],
      "name": "enableAccount",
      "outputs": [],
      "stateMutability": "nonpayable",
      "type": "function"
    },
    {
      "inputs": [
        {
          "internalType": "address",
          "name": "spender",
          "type": "address"
        },
        {
          "internalType": "uint256",
          "name": "addedValue",
          "type": "uint256"
        }
      ],
      "name": "increaseAllowance",
      "outputs": [
        {
          "internalType": "bool",
          "name": "",
          "type": "bool"
        }
      ],
      "stateMutability": "nonpayable",
      "type": "function"
    },
    {
      "inputs": [
        {
          "internalType": "address",
          "name": "to",
          "type": "address"
        },
        {
          "internalType": "uint256",
          "name": "amount",
          "type": "uint256"
        }
      ],
      "name": "mint",
      "outputs": [],
      "stateMutability": "nonpayable",
      "type": "function"
    },
    {
      "inputs": [],
      "name": "name",
      "outputs": [
        {
          "internalType": "string",
          "name": "",
          "type": "string"
        }
      ],
      "stateMutability": "view",
      "type": "function"
    },
    {
      "inputs": [],
      "name": "owner",
      "outputs": [
        {
          "internalType": "address",
          "name": "",
          "type": "address"
        }
      ],
      "stateMutability": "view",
      "type": "function"
    },
    {
      "inputs": [],
      "name": "renounceOwnership",
      "outputs": [],
      "stateMutability": "nonpayable",
      "type": "function"
    },
    {
      "inputs": [],
      "name": "symbol",
      "outputs": [
        {
          "internalType": "string",
          "name": "",
          "type": "string"
        }
      ],
      "stateMutability": "view",
      "type": "function"
    },
    {
      "inputs": [],
      "name": "totalSupply",
      "outputs": [
        {
          "internalType": "uint256",
          "name": "",
          "type": "uint256"
        }
      ],
      "stateMutability": "view",
      "type": "function"
    },
    {
      "inputs": [
        {
          "internalType": "address",
          "name": "to",
          "type": "address"
        },
        {
          "internalType": "uint256",
          "name": "amount",
          "type": "uint256"
        }
      ],
      "name": "transfer",
      "outputs": [
        {
          "internalType": "bool",
          "name": "",
          "type": "bool"
        }
      ],
      "stateMutability": "nonpayable",
      "type": "function"
    },
    {
      "inputs": [
        {
          "internalType": "address",
          "name": "from",
          "type": "address"
        },
        {
          "internalType": "address",
          "name": "to",
          "type": "address"
        },
        {
          "internalType": "uint256",
          "name": "amount",
          "type": "uint256"
        }
      ],
      "name": "transferFrom",
      "outputs": [
        {
          "internalType": "bool",
          "name": "",
          "type": "bool"
        }
      ],
      "stateMutability": "nonpayable",
      "type": "function"
    },
    {
      "inputs": [
        {
          "internalType": "address",
          "name": "newOwner",
          "type": "address"
        }
      ],
      "name": "transferOwnership",
      "outputs": [],
      "stateMutability": "nonpayable",
      "type": "function"
    },
    {
      "inputs": [
        {
          "internalType": "address",
          "name": "account",
          "type": "address"
        }
      ],
      "name": "verifyAccount",
      "outputs": [
        {
          "internalType": "bool",
          "name": "",
          "type": "bool"
        }
      ],
      "stateMutability": "view",
      "type": "function"
    }
  ],
  "bytecode": "0x60806040523480156200001157600080fd5b50604051620010df380380620010df83398101604081905262000034916200012b565b6040518060400160405280600981526020016821b0b9b42a37b5b2b760b91b8152506040518060400160405280600581526020016414d491505360da1b8152508160039081620000859190620001ec565b506004620000948282620001ec565b505050620000b1620000ab620000d560201b60201c565b620000d9565b620000bf6012600a620003cd565b620000cb9082620003e5565b60065550620003ff565b3390565b600580546001600160a01b038381166001600160a01b0319831681179093556040519116919082907f8be0079c531659141344cd1fd0a4f28419497f9722a3daafe3b4186f6b6457e090600090a35050565b6000602082840312156200013e57600080fd5b5051919050565b634e487b7160e01b600052604160045260246000fd5b600181811c908216806200017057607f821691505b6020821081036200019157634e487b7160e01b600052602260045260246000fd5b50919050565b601f821115620001e7576000816000526020600020601f850160051c81016020861015620001c25750805b601f850160051c820191505b81811015620001e357828155600101620001ce565b5050505b505050565b81516001600160401b0381111562000208576200020862000145565b62000220816200021984546200015b565b8462000197565b602080601f8311600181146200025857600084156200023f5750858301515b600019600386901b1c1916600185901b178555620001e3565b600085815260208120601f198616915b82811015620002895788860151825594840194600190910190840162000268565b5085821015620002a85787850151600019600388901b60f8161c191681555b5050505050600190811b01905550565b634e487b7160e01b600052601160045260246000fd5b600181815b808511156200030f578160001904821115620002f357620002f3620002b8565b808516156200030157918102915b93841c9390800290620002d3565b509250929050565b6000826200032857506001620003c7565b816200033757506000620003c7565b81600181146200035057600281146200035b576200037b565b6001915050620003c7565b60ff8411156200036f576200036f620002b8565b50506001821b620003c7565b5060208310610133831016604e8410600b8410161715620003a0575081810a620003c7565b620003ac8383620002ce565b8060001904821115620003c357620003c3620002b8565b0290505b92915050565b6000620003de60ff84168362000317565b9392505050565b8082028115828204841417620003c757620003c7620002b8565b610cd0806200040f6000396000f3fe608060405234801561001057600080fd5b506004361061012c5760003560e01c8063715018a6116100ad578063a457c2d711610071578063a457c2d714610278578063a9059cbb1461028b578063dd62ed3e1461029e578063f16dfbe9146102b1578063f2fde38b146102dd57600080fd5b8063715018a61461022757806384b615811461022f5780638c79ba3a146102425780638da5cb5b1461025557806395d89b411461027057600080fd5b806324ba5884116100f457806324ba5884146101a4578063313ce567146101c757806339509351146101d657806340c10f19146101e957806370a08231146101fe57600080fd5b806306fdde0314610131578063095ea7b31461014f5780630ac168a11461017257806318160ddd1461018957806323b872dd14610191575b600080fd5b6101396102f0565b6040516101469190610b19565b60405180910390f35b61016261015d366004610b84565b610382565b6040519015158152602001610146565b61017b60065481565b604051908152602001610146565b60025461017b565b61016261019f366004610bae565b61039c565b6101626101b2366004610bea565b60076020526000908152604090205460ff1681565b60405160128152602001610146565b6101626101e4366004610b84565b6103c0565b6101fc6101f7366004610b84565b6103e2565b005b61017b61020c366004610bea565b6001600160a01b031660009081526020819052604090205490565b6101fc610465565b6101fc61023d366004610bea565b610479565b6101fc610250366004610bea565b6104a5565b6005546040516001600160a01b039091168152602001610146565b6101396104ce565b610162610286366004610b84565b6104dd565b610162610299366004610b84565b610558565b61017b6102ac366004610c0c565b610566565b6101626102bf366004610bea565b6001600160a01b031660009081526007602052604090205460ff1690565b6101fc6102eb366004610bea565b610591565b6060600380546102ff90610c3f565b80601f016020809104026020016040519081016040528092919081815260200182805461032b90610c3f565b80156103785780601f1061034d57610100808354040283529160200191610378565b820191906000526020600020905b81548152906001019060200180831161035b57829003601f168201915b5050505050905090565b60003361039081858561060a565b60019150505b92915050565b6000336103aa85828561072e565b6103b58585856107a8565b506001949350505050565b6000336103908185856103d38383610566565b6103dd9190610c79565b61060a565b6103ea610957565b6001600160a01b03821660009081526007602052604090205460ff166104575760405162461bcd60e51b815260206004820152601960248201527f4e6f7420616e20617574686f72697a6564206163636f756e740000000000000060448201526064015b60405180910390fd5b61046182826109b1565b5050565b61046d610957565b6104776000610a7c565b565b610481610957565b6001600160a01b03166000908152600760205260409020805460ff19166001179055565b6104ad610957565b6001600160a01b03166000908152600760205260409020805460ff19169055565b6060600480546102ff90610c3f565b600033816104eb8286610566565b90508381101561054b5760405162461bcd60e51b815260206004820152602560248201527f45524332303a2064656372656173656420616c6c6f77616e63652062656c6f77604482015264207a65726f60d81b606482015260840161044e565b6103b5828686840361060a565b6000336103908185856107a8565b6001600160a01b03918216600090815260016020908152604080832093909416825291909152205490565b610599610957565b6001600160a01b0381166105fe5760405162461bcd60e51b815260206004820152602660248201527f4f776e61626c653a206e6577206f776e657220697320746865207a65726f206160448201526564647265737360d01b606482015260840161044e565b61060781610a7c565b50565b6001600160a01b03831661066c5760405162461bcd60e51b8152602060048201526024808201527f45524332303a20617070726f76652066726f6d20746865207a65726f206164646044820152637265737360e01b606482015260840161044e565b6001600160a01b0382166106cd5760405162461bcd60e51b815260206004820152602260248201527f45524332303a20617070726f766520746f20746865207a65726f206164647265604482015261737360f01b606482015260840161044e565b6001600160a01b0383811660008181526001602090815260408083209487168084529482529182902085905590518481527f8c5be1e5ebec7d5bd14f71427d1e84f3dd0314c0f7b2291e5b200ac8c7c3b925910160405180910390a3505050565b600061073a8484610566565b905060001981146107a257818110156107955760405162461bcd60e51b815260206004820152601d60248201527f45524332303a20696e73756666696369656e7420616c6c6f77616e6365000000604482015260640161044e565b6107a2848484840361060a565b50505050565b6001600160a01b03831661080c5760405162461bcd60e51b815260206004820152602560248201527f45524332303a207472616e736665722066726f6d20746865207a65726f206164604482015264647265737360d81b606482015260840161044e565b6001600160a01b03821661086e5760405162461bcd60e51b815260206004820152602360248201527f45524332303a207472616e7366657220746f20746865207a65726f206164647260448201526265737360e81b606482015260840161044e565b610879838383610ace565b6001600160a01b038316600090815260208190526040902054818110156108f15760405162461bcd60e51b815260206004820152602660248201527f45524332303a207472616e7366657220616d6f756e7420657863656564732062604482015265616c616e636560d01b606482015260840161044e565b6001600160a01b03848116600081815260208181526040808320878703905593871680835291849020805487019055925185815290927fddf252ad1be2c89b69c2b068fc378daa952ba7f163c4a11628f55a4df523b3ef910160405180910390a36107a2565b6005546001600160a01b031633146104775760405162461bcd60e51b815260206004820181905260248201527f4f776e61626c653a2063616c6c6572206973206e6f7420746865206f776e6572604482015260640161044e565b6001600160a01b038216610a075760405162461bcd60e51b815260206004820152601f60248201527f45524332303a206d696e7420746f20746865207a65726f206164647265737300604482015260640161044e565b610a1360008383610ace565b8060026000828254610a259190610c79565b90915550506001600160a01b038216600081815260208181526040808320805486019055518481527fddf252ad1be2c89b69c2b068fc378daa952ba7f163c4a11628f55a4df523b3ef910160405180910390a35050565b600580546001600160a01b038381166001600160a01b0319831681179093556040519116919082907f8be0079c531659141344cd1fd0a4f28419497f9722a3daafe3b4186f6b6457e090600090a35050565b6001600160a01b0383164114801590610af057506001600160a01b0382164114155b8015610afb57504115155b15610b0857610b08610b0d565b505050565b610477416006546109b1565b60006020808352835180602085015260005b81811015610b4757858101830151858201604001528201610b2b565b506000604082860101526040601f19601f8301168501019250505092915050565b80356001600160a01b0381168114610b7f57600080fd5b919050565b60008060408385031215610b9757600080fd5b610ba083610b68565b946020939093013593505050565b600080600060608486031215610bc357600080fd5b610bcc84610b68565b9250610bda60208501610b68565b9150604084013590509250925092565b600060208284031215610bfc57600080fd5b610c0582610b68565b9392505050565b60008060408385031215610c1f57600080fd5b610c2883610b68565b9150610c3660208401610b68565b90509250929050565b600181811c90821680610c5357607f821691505b602082108103610c7357634e487b7160e01b600052602260045260246000fd5b50919050565b8082018082111561039657634e487b7160e01b600052601160045260246000fdfea2646970667358221220b21af6025e55dc0b1f6ec91e2d54be5feeb2652a38bc8934e85345b6aba2859664736f6c63430008180033",
  "linkReferences": {},
  "deployedLinkReferences": {}
}