{
  "_format": "hh-sol-artifact-1",
  "contractName": "ZSCERC1155Restricted",
  "sourceName": "contracts/ZSCERC1155Restricted.sol",
  "abi": [
    {
      "inputs": [
        {
          "internalType": "address",
          "name": "_coin",
          "type": "address"
        },
        {
          "internalType": "address",
          "name": "_zether",
          "type": "address"
        },
        {
          "internalType": "address",
          "name": "_burn",
          "type": "address"
        },
        {
          "internalType": "uint256",
          "name": "_epochLength",
          "type": "uint256"
        },
        {
          "internalType": "uint256",
          "name": "_assetID",
          "type": "uint256"
        }
      ],
      "stateMutability": "nonpayable",
      "type": "constructor"
    },
    {
      "anonymous": false,
      "inputs": [
        {
          "components": [
            {
              "internalType": "bytes32",
              "name": "x",
              "type": "bytes32"
            },
            {
              "internalType": "bytes32",
              "name": "y",
              "type": "bytes32"
            }
          ],
          "indexed": false,
          "internalType": "struct Utils.G1Point[]",
          "name": "parties",
          "type": "tuple[]"
        },
        {
          "components": [
            {
              "internalType": "bytes32",
              "name": "x",
              "type": "bytes32"
            },
            {
              "internalType": "bytes32",
              "name": "y",
              "type": "bytes32"
            }
          ],
          "indexed": false,
          "internalType": "struct Utils.G1Point",
          "name": "beneficiary",
          "type": "tuple"
        }
      ],
      "name": "TransferOccurred",
      "type": "event"
    },
    {
      "inputs": [],
      "name": "assetID",
      "outputs": [
        {
          "internalType": "uint256",
          "name": "",
          "type": "uint256"
        }
      ],
      "stateMutability": "view",
      "type": "function"
    },
    {
      "inputs": [
        {
          "components": [
            {
              "internalType": "bytes32",
              "name": "x",
              "type": "bytes32"
            },
            {
              "internalType": "bytes32",
              "name": "y",
              "type": "bytes32"
            }
          ],
          "internalType": "struct Utils.G1Point",
          "name": "y",
          "type": "tuple"
        },
        {
          "internalType": "uint256",
          "name": "bTransfer",
          "type": "uint256"
        },
        {
          "components": [
            {
              "internalType": "bytes32",
              "name": "x",
              "type": "bytes32"
            },
            {
              "internalType": "bytes32",
              "name": "y",
              "type": "bytes32"
            }
          ],
          "internalType": "struct Utils.G1Point",
          "name": "u",
          "type": "tuple"
        },
        {
          "internalType": "bytes",
          "name": "proof",
          "type": "bytes"
        }
      ],
      "name": "burn",
      "outputs": [],
      "stateMutability": "nonpayable",
      "type": "function"
    },
    {
      "inputs": [],
      "name": "epochLength",
      "outputs": [
        {
          "internalType": "uint256",
          "name": "",
          "type": "uint256"
        }
      ],
      "stateMutability": "view",
      "type": "function"
    },
    {
      "inputs": [],
      "name": "fee",
      "outputs": [
        {
          "internalType": "uint256",
          "name": "",
          "type": "uint256"
        }
      ],
      "stateMutability": "view",
      "type": "function"
    },
    {
      "inputs": [
        {
          "components": [
            {
              "internalType": "bytes32",
              "name": "x",
              "type": "bytes32"
            },
            {
              "internalType": "bytes32",
              "name": "y",
              "type": "bytes32"
            }
          ],
          "internalType": "struct Utils.G1Point",
          "name": "y",
          "type": "tuple"
        },
        {
          "internalType": "uint256",
          "name": "bTransfer",
          "type": "uint256"
        }
      ],
      "name": "fund",
      "outputs": [],
      "stateMutability": "nonpayable",
      "type": "function"
    },
    {
      "inputs": [],
      "name": "getRegsiteredAccounts",
      "outputs": [
        {
          "components": [
            {
              "internalType": "bytes32",
              "name": "name",
              "type": "bytes32"
            },
            {
              "components": [
                {
                  "internalType": "bytes32",
                  "name": "x",
                  "type": "bytes32"
                },
                {
                  "internalType": "bytes32",
                  "name": "y",
                  "type": "bytes32"
                }
              ],
              "internalType": "struct Utils.G1Point",
              "name": "shieldedAddress",
              "type": "tuple"
            }
          ],
          "internalType": "struct ZSCERC1155Restricted.Participant[]",
          "name": "",
          "type": "tuple[]"
        }
      ],
      "stateMutability": "view",
      "type": "function"
    },
    {
      "inputs": [],
      "name": "lastGlobalUpdate",
      "outputs": [
        {
          "internalType": "uint256",
          "name": "",
          "type": "uint256"
        }
      ],
      "stateMutability": "view",
      "type": "function"
    },
    {
      "inputs": [
        {
          "internalType": "bytes32",
          "name": "proofHash",
          "type": "bytes32"
        }
      ],
      "name": "lockProof",
      "outputs": [],
      "stateMutability": "nonpayable",
      "type": "function"
    },
    {
      "inputs": [
        {
          "internalType": "address",
          "name": "",
          "type": "address"
        },
        {
          "internalType": "address",
          "name": "",
          "type": "address"
        },
        {
          "internalType": "uint256[]",
          "name": "",
          "type": "uint256[]"
        },
        {
          "internalType": "uint256[]",
          "name": "",
          "type": "uint256[]"
        },
        {
          "internalType": "bytes",
          "name": "",
          "type": "bytes"
        }
      ],
      "name": "onERC1155BatchReceived",
      "outputs": [
        {
          "internalType": "bytes4",
          "name": "",
          "type": "bytes4"
        }
      ],
      "stateMutability": "nonpayable",
      "type": "function"
    },
    {
      "inputs": [
        {
          "internalType": "address",
          "name": "",
          "type": "address"
        },
        {
          "internalType": "address",
          "name": "",
          "type": "address"
        },
        {
          "internalType": "uint256",
          "name": "",
          "type": "uint256"
        },
        {
          "internalType": "uint256",
          "name": "",
          "type": "uint256"
        },
        {
          "internalType": "bytes",
          "name": "",
          "type": "bytes"
        }
      ],
      "name": "onERC1155Received",
      "outputs": [
        {
          "internalType": "bytes4",
          "name": "",
          "type": "bytes4"
        }
      ],
      "stateMutability": "nonpayable",
      "type": "function"
    },
    {
      "inputs": [
        {
          "components": [
            {
              "internalType": "bytes32",
              "name": "x",
              "type": "bytes32"
            },
            {
              "internalType": "bytes32",
              "name": "y",
              "type": "bytes32"
            }
          ],
          "internalType": "struct Utils.G1Point",
          "name": "y",
          "type": "tuple"
        },
        {
          "internalType": "uint256",
          "name": "c",
          "type": "uint256"
        },
        {
          "internalType": "uint256",
          "name": "s",
          "type": "uint256"
        },
        {
          "internalType": "bytes32",
          "name": "name",
          "type": "bytes32"
        }
      ],
      "name": "register",
      "outputs": [],
      "stateMutability": "nonpayable",
      "type": "function"
    },
    {
      "inputs": [
        {
          "components": [
            {
              "internalType": "bytes32",
              "name": "x",
              "type": "bytes32"
            },
            {
              "internalType": "bytes32",
              "name": "y",
              "type": "bytes32"
            }
          ],
          "internalType": "struct Utils.G1Point[]",
          "name": "y",
          "type": "tuple[]"
        },
        {
          "internalType": "uint256",
          "name": "epoch",
          "type": "uint256"
        }
      ],
      "name": "simulateAccounts",
      "outputs": [
        {
          "components": [
            {
              "internalType": "bytes32",
              "name": "x",
              "type": "bytes32"
            },
            {
              "internalType": "bytes32",
              "name": "y",
              "type": "bytes32"
            }
          ],
          "internalType": "struct Utils.G1Point[2][]",
          "name": "accounts",
          "type": "tuple[2][]"
        }
      ],
      "stateMutability": "view",
      "type": "function"
    },
    {
      "inputs": [
        {
          "internalType": "bytes4",
          "name": "interfaceId",
          "type": "bytes4"
        }
      ],
      "name": "supportsInterface",
      "outputs": [
        {
          "internalType": "bool",
          "name": "",
          "type": "bool"
        }
      ],
      "stateMutability": "view",
      "type": "function"
    },
    {
      "inputs": [
        {
          "components": [
            {
              "components": [
                {
                  "internalType": "bytes32",
                  "name": "x",
                  "type": "bytes32"
                },
                {
                  "internalType": "bytes32",
                  "name": "y",
                  "type": "bytes32"
                }
              ],
              "internalType": "struct Utils.G1Point[]",
              "name": "C",
              "type": "tuple[]"
            },
            {
              "components": [
                {
                  "internalType": "bytes32",
                  "name": "x",
                  "type": "bytes32"
                },
                {
                  "internalType": "bytes32",
                  "name": "y",
                  "type": "bytes32"
                }
              ],
              "internalType": "struct Utils.G1Point",
              "name": "D",
              "type": "tuple"
            },
            {
              "components": [
                {
                  "internalType": "bytes32",
                  "name": "x",
                  "type": "bytes32"
                },
                {
                  "internalType": "bytes32",
                  "name": "y",
                  "type": "bytes32"
                }
              ],
              "internalType": "struct Utils.G1Point[]",
              "name": "y",
              "type": "tuple[]"
            },
            {
              "components": [
                {
                  "internalType": "bytes32",
                  "name": "x",
                  "type": "bytes32"
                },
                {
                  "internalType": "bytes32",
                  "name": "y",
                  "type": "bytes32"
                }
              ],
              "internalType": "struct Utils.G1Point",
              "name": "u",
              "type": "tuple"
            },
            {
              "internalType": "bytes",
              "name": "proof",
              "type": "bytes"
            },
            {
              "components": [
                {
                  "internalType": "bytes32",
                  "name": "x",
                  "type": "bytes32"
                },
                {
                  "internalType": "bytes32",
                  "name": "y",
                  "type": "bytes32"
                }
              ],
              "internalType": "struct Utils.G1Point",
              "name": "beneficiary",
              "type": "tuple"
            }
          ],
          "internalType": "struct ZetherVerifier.Transaction",
          "name": "transaction",
          "type": "tuple"
        }
      ],
      "name": "transfer",
      "outputs": [
        {
          "internalType": "bool",
          "name": "",
          "type": "bool"
        }
      ],
      "stateMutability": "nonpayable",
      "type": "function"
    }
  ],
  "bytecode": "0x60806040526000600c553480156200001657600080fd5b50604051620026ef380380620026ef83398101604081905262000039916200020b565b600080546001600160a01b038088166001600160a01b0319928316179092556001805487841690831681179091556002805493871693909216929092179055600383905560058290556040805163ddca3f4360e01b8152905163ddca3f43916004808201926020929091908290030181865afa158015620000be573d6000803e3d6000fd5b505050506040513d601f19601f82011682018060405250810190620000e4919062000268565b600455604080518082019091526000808252602082015262000166604080518082018252600080825260209182015281518083019092527f077da99d806abd13c9f15ece5398525119d11e11e9836b2ee7d23f6159ad87d482527f01485efa927f2ad41bff567eec88f32fb0a0f706588b4e41a8d587d008b7f8759082015290565b60086000836040516020016200018e9190815181526020918201519181019190915260400190565b604051602081830303815290604052805190602001208152602001908152602001600020600160028110620001c757620001c762000282565b60020201600082015181600001556020820151816001015590505050505050505062000298565b80516001600160a01b03811681146200020657600080fd5b919050565b600080600080600060a086880312156200022457600080fd5b6200022f86620001ee565b94506200023f60208701620001ee565b93506200024f60408701620001ee565b6060870151608090970151959894975095949392505050565b6000602082840312156200027b57600080fd5b5051919050565b634e487b7160e01b600052603260045260246000fd5b61244780620002a86000396000f3fe608060405234801561001057600080fd5b50600436106100ea5760003560e01c80636bc509d31161008c578063ac43d55911610066578063ac43d559146101de578063bc197c81146101f1578063ddca3f4314610229578063f23a6e611461023257600080fd5b80636bc509d3146101a05780636d6a2859146101b557806379e543d0146101be57600080fd5b806357d775f8116100c857806357d775f81461015a578063599c1a93146101715780635a6fcd40146101845780635ddd5ddb1461018d57600080fd5b806301ffc9a7146100ef578063312a526c1461011757806341709f0e1461012c575b600080fd5b6101026100fd366004611a1b565b610251565b60405190151581526020015b60405180910390f35b61012a610125366004611b70565b610288565b005b61012a61013a366004611bd9565b6000908152600a6020526040902080546001600160a01b03191633179055565b61016360035481565b60405190815260200161010e565b61012a61017f366004611bf2565b6106a6565b610163600c5481565b61010261019b366004611cb8565b61092b565b6101a861101b565b60405161010e9190611da3565b61016360055481565b6101d16101cc366004611e06565b61109d565b60405161010e9190611e4a565b61012a6101ec366004611ec7565b611328565b6102106101ff366004611f7c565b63bc197c8160e01b95945050505050565b6040516001600160e01b0319909116815260200161010e565b61016360045481565b610210610240366004612025565b63f23a6e6160e01b95945050505050565b60006001600160e01b03198216630271189760e51b148061028257506301ffc9a760e01b6001600160e01b03198316145b92915050565b60008460405160200161029b9190612089565b6040516020818303038152906040528051906020012090506102bc81611549565b6102e15760405162461bcd60e51b81526004016102d8906120a0565b60405180910390fd5b6102ea81611690565b63ffffffff84111561033e5760405162461bcd60e51b815260206004820152601d60248201527f5472616e7366657220616d6f756e74206f7574206f662072616e67652e00000060448201526064016102d8565b6000818152600860205260408082208151808301909252600283835b8282101561039657838260020201604051806040016040529081600082015481526020016001820154815250508152602001906001019061035a565b5050505090506103c86103b96103ab87611839565b6103b3611865565b906118cc565b8260005b602002015190611911565b6000838152600860209081526040808320845181559382015160019094019390935560069052818120825180840190935290600290835b8282101561043b5783826002020160405180604001604052908160008201548152602001600182015481525050815260200190600101906103ff565b5050505090506104506103b96103ab87611839565b8152604051600090610466908690602001612089565b60405160208183030381529060405280519060200120905060005b600b548110156104f55781600b828154811061049f5761049f6120d7565b9060005260206000200154036104ed5760405162461bcd60e51b81526020600482015260136024820152724e6f6e636520616c7265616479207365656e2160681b60448201526064016102d8565b600101610481565b50600b80546001810182556000919091527f0175b7a638427703f0dbe7bb9bbf987a2551717b34e79f33b5b1008d1fa01db90181905560025482516020840151600c5460405163123a2d5960e31b81526001600160a01b03909416936391d16ac89361057093909290918d91908c9033908d9060040161213d565b602060405180830381865afa15801561058d573d6000803e3d6000fd5b505050506040513d601f19601f820116820180604052508101906105b191906121bd565b6105fd5760405162461bcd60e51b815260206004820152601f60248201527f4275726e2070726f6f6620766572696669636174696f6e206661696c6564210060448201526064016102d8565b600054600554604051637921219560e11b815230600482015233602482015260448101919091526064810188905260a06084820152601460a4820152733bb4ba34323930bb90333937b6903d32ba3432b960611b60c48201526001600160a01b039091169063f242432a9060e401600060405180830381600087803b15801561068557600080fd5b505af1158015610699573d6000803e3d6000fd5b5050505050505050505050565b6000826040516020016106b99190612089565b6040516020818303038152906040528051906020012090506106da81611549565b6106f65760405162461bcd60e51b81526004016102d8906120a0565b6106ff81611690565b63ffffffff8211156107535760405162461bcd60e51b815260206004820152601c60248201527f4465706f73697420616d6f756e74206f7574206f662072616e67652e0000000060448201526064016102d8565b600081815260086020908152604091829020825180840190935280548352600101549082015261078f610788846103b3611865565b8290611911565b6000838152600860209081526040808320845181559184015160019092019190915590546005549151637921219560e11b815233600482015230602482015260448101929092526064820186905260a06084830152600e60a48301526d333ab732103a37903d32ba3432b960911b60c48301529192506001600160a01b039091169063f242432a9060e401600060405180830381600087803b15801561083457600080fd5b505af1158015610848573d6000803e3d6000fd5b5050600054600554604051627eeac760e11b8152306004820152602481019190915263ffffffff93506001600160a01b03909116915062fdd58e90604401602060405180830381865afa1580156108a3573d6000803e3d6000fd5b505050506040513d601f19601f820116820180604052508101906108c791906121df565b11156109255760405162461bcd60e51b815260206004820152602760248201527f46756e642070757368657320616464726573732070617374206d6178696d756d604482015266103b30b63ab29760c91b60648201526084016102d8565b50505050565b60408101515160009081816001600160401b0381111561094d5761094d611a45565b60405190808252806020026020018201604052801561099257816020015b604080518082019091526000808252602082015281526020019060019003908161096b5790505b5090506000826001600160401b038111156109af576109af611a45565b6040519080825280602002602001820160405280156109f457816020015b60408051808201909152600080825260208201528152602001906001900390816109cd5790505b508551519091508314610a495760405162461bcd60e51b815260206004820152601c60248201527f496e707574206172726179206c656e677468206d69736d61746368210000000060448201526064016102d8565b60008560800151604051602001610a6091906121f8565b60408051601f1981840301815291815281516020928301206000818152600a9093529120549091506001600160a01b031615610aee576000818152600a60205260409020546001600160a01b03163314610aee5760405162461bcd60e51b815260206004820152600f60248201526e141c9bdbd9881a5cc81b1bd8dad959608a1b60448201526064016102d8565b60008660a00151604051602001610b059190612089565b604051602081830303815290604052805190602001209050610b2681611549565b610b815760405162461bcd60e51b815260206004820152602660248201527f4d696e65722773206163636f756e74206973206e6f74207965742072656769736044820152653a32b932b21760d11b60648201526084016102d8565b610b8a81611690565b610bc7610b9b6004546103b3611865565b600083815260086020908152604091829020825180840190935280548352600101549082015290611911565b60008281526008602090815260408220835181559201516001909201919091555b85811015610e1b57600088604001518281518110610c0857610c086120d7565b6020026020010151604051602001610c209190612089565b604051602081830303815290604052805190602001209050610c4181611549565b610c5d5760405162461bcd60e51b81526004016102d8906120a0565b610c6681611690565b6000818152600860205260408082208151808301909252600283835b82821015610cbe578382600202016040518060400160405290816000820154815260200160018201548152505081526020019060010190610c82565b505050509050610cf88a600001518481518110610cdd57610cdd6120d7565b6020026020010151826000600281106103bd576103bd6120d7565b600083815260086020908152604090912082518155918101516001928301558b0151610d259183906103bd565b60008381526008602090815260408083208451600280830191909155948301516003909101556006909152808220815180830190925290929091835b82821015610d9d578382600202016040518060400160405290816000820154815260200160018201548152505081526020019060010190610d61565b505050509050610dbc8a600001518481518110610cdd57610cdd6120d7565b878481518110610dce57610dce6120d7565b6020026020010181905250610df48a60200151826001600281106103bd576103bd6120d7565b868481518110610e0657610e066120d7565b60209081029190910101525050600101610be8565b5060008760600151604051602001610e339190612089565b60405160208183030381529060405280519060200120905060005b600b54811015610ec25781600b8281548110610e6c57610e6c6120d7565b906000526020600020015403610eba5760405162461bcd60e51b81526020600482015260136024820152724e6f6e636520616c7265616479207365656e2160681b60448201526064016102d8565b600101610e4e565b50600b80546001818101835560009283527f0175b7a638427703f0dbe7bb9bbf987a2551717b34e79f33b5b1008d1fa01db990910183905554600c546040516358022c4560e01b81526001600160a01b03909216916358022c4591610f2f918a918a918f90600401612264565b602060405180830381865afa158015610f4c573d6000803e3d6000fd5b505050506040513d601f19601f82011682018060405250810190610f7091906121bd565b905080610fcb5760405162461bcd60e51b815260206004820152602360248201527f5472616e736665722070726f6f6620766572696669636174696f6e206661696c60448201526265642160e81b60648201526084016102d8565b7f306c363b04ebfc48d0bc8a89a5fb2e4230c37937d0530d50b8334d50eec63ef089604001518a60a00151604051611004929190612346565b60405180910390a150600198975050505050505050565b60606007805480602002602001604051908101604052809291908181526020016000905b828210156110945760008481526020908190206040805180820182526003860290920180548352815180830190925260018082015483526002909101548285015282840191909152908352909201910161103f565b50505050905090565b8151606090806001600160401b038111156110ba576110ba611a45565b6040519080825280602002602001820160405280156110f357816020015b6110e06119a8565b8152602001906001900390816110d85790505b50915060005b81811015611320576000858281518110611115576111156120d7565b602002602001015160405160200161112d9190612089565b60408051601f198184030181528282528051602091820120600081815260069092528282208484019093529350600290835b8282101561119b57838260020201604051806040016040529081600082015481526020016001820154815250508152602001906001019061115f565b505050508483815181106111b1576111b16120d7565b60200260200101819052508460096000838152602001908152602001600020541015611317576000818152600860205260408082208151808301909252600283835b8282101561122f5783826002020160405180604001604052908160008201548152602001600182015481525050815260200190600101906111f3565b50505050905061127c8160006002811061124b5761124b6120d7565b6020020151868581518110611262576112626120d7565b60200260200101516000600281106103bd576103bd6120d7565b85848151811061128e5761128e6120d7565b60200260200101516000600281106112a8576112a86120d7565b60200201526112e481600160200201518685815181106112ca576112ca6120d7565b60200260200101516001600281106103bd576103bd6120d7565b8584815181106112f6576112f66120d7565b6020026020010151600160028110611310576113106120d7565b6020020152505b506001016110f9565b505092915050565b600061135261134061133986611839565b87906118cc565b61134c856103b3611865565b90611911565b9050600061138c30878460405160200161136e93929190612372565b6040516020818303038152906040528051906020012060001c61195a565b90508481146113dd5760405162461bcd60e51b815260206004820152601f60248201527f496e76616c696420726567697374726174696f6e207369676e6174757265210060448201526064016102d8565b6000866040516020016113f09190612089565b60405160208183030381529060405280519060200120905061141181611549565b1561145e5760405162461bcd60e51b815260206004820152601b60248201527f4163636f756e7420616c7265616479207265676973746572656421000000000060448201526064016102d8565b60008181526008602090815260409091208851815590880151600190910155611485611865565b600091825260086020908152604080842083516002820155928201516003938401558051808201909152958652858101988952600780546001810182559352945191027fa66cc928b5edb82af9bd49922954155ab7b0942694bea4ce44661d9a8736c688810191909155955180517fa66cc928b5edb82af9bd49922954155ab7b0942694bea4ce44661d9a8736c689880155909201517fa66cc928b5edb82af9bd49922954155ab7b0942694bea4ce44661d9a8736c68a9095019490945550505050565b6040805180820182526000808252602080830182905283518583526006909152838220608082018552919384928291820190600285835b828210156115bc578382600202016040518060400160405290816000820154815260200160018201548152505081526020019060010190611580565b5050509082525060008681526008602090815260408083208151808301909252919093019291600290835b828210156116235783826002020160405180604001604052908160008201548152602001600182015481525050815260200190600101906115e7565b5050509152509050611646828260005b602002015160005b602002015190611986565b80156116615750611661828260005b6020020151600161163b565b8015611674575061167482826001611633565b8015611687575061168782826001611655565b15949350505050565b6000600354426116a091906123c8565b60008381526009602052604090205490915081111561181a5760408051600084815260066020528281206080830184529092829190820190600285835b828210156117195783826002020160405180604001604052908160008201548152602001600182015481525050815260200190600101906116dd565b5050509082525060008581526008602090815260408083208151808301909252919093019291600290835b82821015611780578382600202016040518060400160405290816000820154815260200160018201548152505081526020019060010190611744565b505050915250602081015151815191925061179c9160006103bd565b6000848152600660209081526040909120825181559181015160019283015582810151015182516117cc926103bd565b60008481526006602090815260408083208451600280830191909155948301516003918201556008835281842084815560018101859055948501849055939093018290556009905220829055505b80600c54101561183557600c819055611835600b60006119e1565b5050565b6000610282827f30644e72e131a029b85045b68181585d2833e84879b9709143e1f593f00000016123dc565b604080518082018252600080825260209182015281518083019092527f077da99d806abd13c9f15ece5398525119d11e11e9836b2ee7d23f6159ad87d482527f01485efa927f2ad41bff567eec88f32fb0a0f706588b4e41a8d587d008b7f8759082015290565b6040805180820190915260008082526020820152604051835181526020840151602082015282604082015260408260608360075afa61190a57600080fd5b5092915050565b60408051808201909152600080825260208201526040518351815260208401516020820152825160408201526020830151606082015260408260808360065afa61190a57600080fd5b60006102827f30644e72e131a029b85045b68181585d2833e84879b9709143e1f593f0000001836123fd565b805182516000911480156119a1575081602001518360200151145b9392505050565b60405180604001604052806002905b60408051808201909152600080825260208201528152602001906001900390816119b75790505090565b50805460008255906000526020600020908101906119ff9190611a02565b50565b5b80821115611a175760008155600101611a03565b5090565b600060208284031215611a2d57600080fd5b81356001600160e01b0319811681146119a157600080fd5b634e487b7160e01b600052604160045260246000fd5b60405160c081016001600160401b0381118282101715611a7d57611a7d611a45565b60405290565b604051601f8201601f191681016001600160401b0381118282101715611aab57611aab611a45565b604052919050565b600060408284031215611ac557600080fd5b604051604081018181106001600160401b0382111715611ae757611ae7611a45565b604052823581526020928301359281019290925250919050565b600082601f830112611b1257600080fd5b81356001600160401b03811115611b2b57611b2b611a45565b611b3e601f8201601f1916602001611a83565b818152846020838601011115611b5357600080fd5b816020850160208301376000918101602001919091529392505050565b60008060008060c08587031215611b8657600080fd5b611b908686611ab3565b935060408501359250611ba68660608701611ab3565b915060a08501356001600160401b03811115611bc157600080fd5b611bcd87828801611b01565b91505092959194509250565b600060208284031215611beb57600080fd5b5035919050565b60008060608385031215611c0557600080fd5b611c0f8484611ab3565b946040939093013593505050565b60006001600160401b03821115611c3657611c36611a45565b5060051b60200190565b600082601f830112611c5157600080fd5b81356020611c66611c6183611c1d565b611a83565b8083825260208201915060208460061b870101935086841115611c8857600080fd5b602086015b84811015611cad57611c9f8882611ab3565b835291830191604001611c8d565b509695505050505050565b600060208284031215611cca57600080fd5b81356001600160401b0380821115611ce157600080fd5b908301906101208286031215611cf657600080fd5b611cfe611a5b565b823582811115611d0d57600080fd5b611d1987828601611c40565b825250611d298660208501611ab3565b6020820152606083013582811115611d4057600080fd5b611d4c87828601611c40565b604083015250611d5f8660808501611ab3565b606082015260c083013582811115611d7657600080fd5b611d8287828601611b01565b608083015250611d958660e08501611ab3565b60a082015295945050505050565b6020808252825182820181905260009190848201906040850190845b81811015611dfa57835180518452850151611de68685018280518252602090810151910152565b509284019260609290920191600101611dbf565b50909695505050505050565b60008060408385031215611e1957600080fd5b82356001600160401b03811115611e2f57600080fd5b611e3b85828601611c40565b95602094909401359450505050565b60208082528251828201819052600091906040908185019086840185805b83811015611eb957825185835b6002811015611ea357611e9382845180518252602090810151910152565b9189019190880190600101611e75565b5050506080949094019391860191600101611e68565b509298975050505050505050565b60008060008060a08587031215611edd57600080fd5b611ee78686611ab3565b966040860135965060608601359560800135945092505050565b80356001600160a01b0381168114611f1857600080fd5b919050565b600082601f830112611f2e57600080fd5b81356020611f3e611c6183611c1d565b8083825260208201915060208460051b870101935086841115611f6057600080fd5b602086015b84811015611cad5780358352918301918301611f65565b600080600080600060a08688031215611f9457600080fd5b611f9d86611f01565b9450611fab60208701611f01565b935060408601356001600160401b0380821115611fc757600080fd5b611fd389838a01611f1d565b94506060880135915080821115611fe957600080fd5b611ff589838a01611f1d565b9350608088013591508082111561200b57600080fd5b5061201888828901611b01565b9150509295509295909350565b600080600080600060a0868803121561203d57600080fd5b61204686611f01565b945061205460208701611f01565b9350604086013592506060860135915060808601356001600160401b0381111561207d57600080fd5b61201888828901611b01565b815181526020808301519082015260408101610282565b6020808252601b908201527f4163636f756e74206e6f742079657420726567697374657265642e0000000000604082015260600190565b634e487b7160e01b600052603260045260246000fd5b60005b838110156121085781810151838201526020016120f0565b50506000910152565b600081518084526121298160208601602086016120ed565b601f01601f19169290920160200192915050565b87518152602080890151908201526000610160885160408401526020890151606084015287516080840152602088015160a084015260c08301879052855160e084015260208601516101008401526001600160a01b03851661012084015261014083018190526121af81840185612111565b9a9950505050505050505050565b6000602082840312156121cf57600080fd5b815180151581146119a157600080fd5b6000602082840312156121f157600080fd5b5051919050565b6000825161220a8184602087016120ed565b9190910192915050565b60008151808452602080850194506020840160005b838110156122595761224687835180518252602090810151910152565b6040969096019590820190600101612229565b509495945050505050565b6080815260006122776080830187612214565b82810360208401526122898187612214565b9050846040840152828103606084015261012084518183526122ad82840182612214565b91505060208501516122cc602084018280518252602090810151910152565b50604085015182820360608401526122e48282612214565b9150506060850151612303608084018280518252602090810151910152565b50608085015182820360c084015261231b8282612111565b91505060a085015161233a60e084018280518252602090810151910152565b50979650505050505050565b6060815260006123596060830185612214565b90506119a1602083018480518252602090810151910152565b6001600160a01b038416815260a08101612399602083018580518252602090810151910152565b8251606083015260208301516080830152949350505050565b634e487b7160e01b600052601260045260246000fd5b6000826123d7576123d76123b2565b500490565b8181038181111561028257634e487b7160e01b600052601160045260246000fd5b60008261240c5761240c6123b2565b50069056fea264697066735822122045cd70ed3a652e0383b45e09b29ceb3d85e0a96dd2c080a207cde2df01129f1064736f6c63430008180033",
  "linkReferences": {},
  "deployedLinkReferences": {}
}